:020000040800F2
:10000000A00E0020B1010008491B0008A51A000835
:10001000451B0008BF070008CD21000800000000B4
:100020000000000000000000000000001D1C00088F
:10003000C3070008000000004D1B00081F1C00083B
:10004000CB010008CB010008CB010008CB01000860
:10005000CB010008CB010008CB010008CB01000850
:10006000CB010008CB010008CB010008CB01000840
:10007000CB010008CB010008CB010008CB01000830
:10008000CB010008CB010008CB01000800000000F4
:10009000000000000000000000000000CB0100088C
:1000A000CB010008E51C0008CB010008CB010008CB
:1000B000CB010008CB010008CB010008CB010008F0
:1000C000CB010008CB010008CB010008CB010008E0
:1000D000CB010008BD210008CB0100080000000092
:1000E000CB010008CB010008CB0100080000000094
:1000F000000000000000000000000000CB0100082C
:1001000000000000CB010008CB010008CB01000873
:1001100000000000000000000000000000000000DF
:10012000CB010008CB010008CB010008CB0100087F
:10013000CB010008000000000000000000000000EB
:10014000000000000000000000000000CB010008DB
:10015000CB010008CB010008CB010008CB0100084F
:10016000CB010008CB0100080000000000000000E7
:10017000000000000000000000000000000000007F
:1001800000000000CB01000800000000000000009B
:10019000CB010008CB010008DFF810D000F08EFA88
:1001A0000048004745390008AFF30080A00E00204A
:1001B0000648804706480047FEE7FEE7FEE7FEE701
:1001C000FEE7FEE7FEE7FEE7FEE7FEE7D11C0008DC
:1001D000990100082DE9F05F0546002092469B46F4
:1001E00088460646814640241BE02846414647464D
:1001F000224600F09AF853465A46C01A914110D34D
:1002000011461846224600F081F82D1A67EB0108C6
:100210004F4622460120002100F078F817EB000934
:100220004E41201EA4F10104DFDC484631462A4637
:100230004346BDE8F09F40EA01039B0703D009E075
:1002400008C9121F08C0042AFAD203E011F8013BC2
:1002500000F8013B521EF9D27047D2B201E000F81B
:10026000012B491EFBD270470022F6E710B513465A
:100270000A4604461946FFF7F0FF204610BD30B588
:1002800005462A460B4612F8010B13F8014B08B13C
:10029000A042F8D01CB1002802D06D1CF1E728461E
:1002A00030BD421C10F8011B0029FBD1801A704799
:1002B000034611F8012B00F8012B002AF9D118464A
:1002C000704730B505460020034600E05B1C9342B2
:1002D00005D2EC5CC85C201A01D1002CF6D130BDEF
:1002E00030B50B46014600202022012409E021FA06
:1002F00002F59D4205D303FA02F5491B04FA02F503
:100300002844151EA2F10102F1DC30BD202A04DBD5
:10031000203A00FA02F1002070479140C2F1200318
:1003200020FA03F3194390407047202A04DB203A57
:1003300021FA02F00021704721FA02F3D040C2F105
:10034000200291400843194670472DE9FE4F804630
:1003500081EA0300C00F0C46009021F0004123F019
:100360000045B8EB0200A94105D24046214690461F
:100370001C460B46024623F00040104347D0270D91
:10038000C7F30A00C3F30A510290401A01904028B3
:100390006BDAC3F3130040F4801B0098924620B13F
:1003A0000023D2EB030A63EB0B0B01985946C0F113
:1003B00040025046FFF7AAFF06460D4650465946F2
:1003C000019A00F08DF910EB08006141002487EAE2
:1003D000115284EAE7731A4340D0009A62B3019A3B
:1003E000012A4FEA075215DC001B61EB02014FF0B6
:1003F000004202EA0752CDE90042001C41F580119B
:1004000032462B4600F08DF903B0BDE8F08F404630
:100410002146F9E7001B61EB0201001C41F5801346
:1004200000185B412018A2F5001747EB030140EAD2
:10043000D570B6196D4111E06D084FEA360645EAF0
:10044000C0754FEA0752001B61EB0201001C41F529
:10045000801149084FEA30000019514132462B46BD
:1004600003B0BDE8F04F00F04DB900980122400004
:100470000023D0EB020263EBE073009821464FEAC1
:10048000E074B8EB000061EB0401E9E783F000439E
:100490005BE781F0004158E72DE9FE4F81EA030454
:1004A00004F0004421F0004100944FF0000B23F0D1
:1004B000004350EA01045ED052EA03045BD0C3F368
:1004C0000A54C1F30A552C44A4F2F3340194A0FB5E
:1004D0000254C1F3130141F48011C3F3130343F435
:1004E000801301FB024400FB034E840A970A44EA8E
:1004F000815447EA8357A4FB076802958D0A05FBE0
:1005000007854FEA932C04FB0C542705029D4FEA04
:10051000065847EA1637B5EB08056EEB070C870E51
:10052000920E47EA811742EA8312A7FB0201B6EB5B
:100530000B0164EB00042B0D43EA0C335E1844EB13
:100540001C50DA465146E7FB0201C5F313044FEA9B
:100550000B3343EA14534FEA0432019C43EA060387
:10056000A4F10C040294009CCDE900B400F0D9F889
:1005700003B0BDE8F08F00200146F9E72DE9F04D0A
:1005800081EA030404F0004B21F0004514464FF0CB
:10059000000A23F0004150EA050220D054EA01028B
:1005A0001DD0C5F30A570246C5F31303C1F3130068
:1005B000C1F30A5640F4801543F48013A7EB0608F4
:1005C000101BD64608F2FD3873EB050002D308F184
:1005D000010801E092185B41B8F1000F03DA002036
:1005E0000146BDE8F08D00204FF480110646844698
:1005F0000EE0171B73EB050705D3121B63EB050316
:1006000006434CEA010C49084FEA300092185B415E
:1006100050EA0107EDD152EA030012D082EA040049
:1006200083EA0501084305D0101BAB4106D2012225
:10063000002306E000224FF0004302E06FF00102C9
:1006400053101AEB06004CEB085110EB0A0041EB7B
:100650000B01BDE8F04D00F055B8C1F30A52C1F3EB
:10066000130140F2FF3341F480119A4202DA002074
:100670000146704740F233439A42A2F2334202DC11
:100680005242FFF752BEFFF741BE000030B5041ED4
:1006900071F1000404DB4FF00044404264EB0101BF
:1006A000141E73F1000405DB1C464FF00043524258
:1006B00063EB0403994208BF904230BD064C074DDE
:1006C00006E0E06840F0010394E807009847103422
:1006D000AC42F6D3FFF764FD603B0008803B0008A6
:1006E000202A06DBCB17203A41FA02F043EAE073F6
:1006F00006E041FA02F3D040C2F1200291400843E3
:100700001946704710B5141E73F1000408DA401C36
:1007100041F1000192185B411A4301D120F0010020
:1007200010BD2DE9F04D92469B4611B1B1FA81F210
:1007300002E0B0FA80F220329046FFF7E7FD04466F
:100740000F4640EA0A0041EA0B0153465A46084365
:1007500013D0114653EA010019D0C8F140025046A7
:10076000FFF7E3FD05460E46504659464246FFF761
:10077000CDFD084305D0012004E020463946BDE800
:10078000F08D0020054346EAE0762C4337430A9873
:100790006305E40AA0EB08000022FD0A44EA47547E
:1007A0000A3002D500200146E9E701051019694128
:1007B000DDE9084500196941BDE8F04DA2E700BF39
:1007C000FEE7704772B600BFFEE770B50446A56D40
:1007D00000F05EF9064694F83500022808D0802023
:1007E000606500BF002084F8340000BF012070BDA8
:1007F0002068006820F016002168086020684069C1
:1008000020F0800021684861206C08B9A06C28B1F4
:100810002068006820F008002168086020680068EF
:1008200020F001002168086010E000F031F9801B21
:1008300005280BD920206065032084F8350000BF0F
:10084000002084F8340000BF0320D0E7206800684F
:1008500000F001000028E8D194F85C103F208840A7
:10086000A860012084F8350000BF002084F834001F
:1008700000BF00BFBBE7014691F83500022803D056
:100880008020486501207047052081F83500086800
:10089000006820F001000A6810600020F3E7000003
:1008A00070B5044600F0F4F806462546681C10B101
:1008B00004480078054400BF00F0EAF8801BA84215
:1008C000FAD370BD08000020F8B502460B4600259B
:1008D000002400200021C7E0012606FA01F51E6869
:1008E00006EA0504AC4274D11E7906F00306012E17
:1008F00004D01E7906F00306022E13D190684F0033
:100900000326BE40B0434F00DE68BE4030439060D7
:10091000506801268E40B0431E79C6F300168E4003
:10092000304350601E7906F00306032E09D0D068CC
:100930004F000326BE40B0434F009E68BE40304388
:10094000D0601E7906F00306022E13D1CF0802F103
:10095000200656F827004E07F70E0F26BE40B0437C
:100960004F07FF0E1E69BE403043CF0802F120063C
:1009700046F8270010684F000326BE40B0431E799A
:1009800006F003064F00BE40304310605E6806F478
:100990004036002E67D000BF00260096344E3668E1
:1009A00046F48046324F3E603E46366806F4804646
:1009B000009600BF00BF2F4E8F0856F827008E0705
:1009C000370F0F26BE40B0432B4EB24202D1002655
:1009D00015E048E0294EB24201D101260FE0284E31
:1009E000B24201D102260AE0264EB24201D10326CC
:1009F00005E0254EB24201D1042600E007268F070C
:100A00003F0FBE4030431B4E8F0846F827001F4E55
:100A10003068A0435E6806F4801606B120431B4E82
:100A20003060361D3068A0435E6806F4001606B1DB
:100A30002043164E361D3060144E361F3068A043DA
:100A40005E6806F4003606B12043104E361F306053
:100A5000361F3068A0435E6806F4803606B1204336
:100A60000A4E083E3060491C1029FFF435AFF8BD2E
:100A700044380240083801400000024000040240AF
:100A800000080240000C024000100240083C0140F7
:100A9000014800687047000000000020034800681B
:100AA00003490978084401490860704700000020A4
:100AB0000800002010B50D48006840F400700B4994
:100AC00008600846006840F48060086008460068D6
:100AD00040F480700860032000F0CCF80F2000F094
:100AE00007F800F055F8002010BD0000003C02405F
:100AF000F0B587B004460026002700BF0020009014
:100B00001E48006840F001001C4908600846006863
:100B100000F00100009000BF00BF01A902A800F092
:100B20007FF900F0B5F906461548B6FBF0F0471E10
:100B300014481549086040F2E7311348C160476026
:100B4000002101618160816100F05AFC054695B980
:100B50000D4800F089FC05466DB9192000F03CF8FD
:100B6000102C07D200222146192000F045F8074832
:100B7000046000E00125284607B0F0BD443802407B
:100B800040420F00000001408800002004000020C7
:100B900008B500BF002000900E48006840F4804077
:100BA0000C4908600846006800F48040009000BFCF
:100BB00000BF00BF00200090081F006840F0805078
:100BC000091F08600846006800F08050009000BFD0
:100BD00000BF08BD4438024001460846002809DB32
:100BE00000F01F0301229A4043099B0003F1E02318
:100BF000C3F8002100BF70472DE9F05F80460D4625
:100C00001646002701F0C6FB074639462A463346FA
:100C100001F00700C0F1070ABAF1040F02D94FF042
:100C2000040A01E0C0F1070AD14600F1040ABAF152
:100C3000070F02D24FF0000A01E0A0F1030AD446E8
:100C40004FF0010A0AFA09FAAAF1010A0AEA020AAD
:100C50000AFA0CFA4FF0010B0BFA0CFBABF1010B8B
:100C60000BEA030B4AEA0B042146404601F09AFBCB
:100C7000BDE8F09F00BF00F00702064B19684FF671
:100C8000FF031940044B0B4343EA0221014B196057
:100C900000BF70470CED00E00000FA0570B5044697
:100CA0000D460CB9012070BD5848006800F00700DF
:100CB000A84209D255490D700846006800F00700A7
:100CC000A84201D00120EEE7207800F002000228BF
:100CD0001DD1207800F00400042805D14C4800689C
:100CE00040F4E0504A490860207800F008000828E5
:100CF00005D14748006840F46040454908604448D1
:100D0000006820F0F000A16808434149086020789D
:100D100000F00100A8B36068012807D13C480838FA
:100D20000068C0F34040B8B90120BCE76068022801
:100D300002D06068032807D1354808380068C0F33E
:100D4000406048B90120AEE7314808380068C0F378
:100D5000400008B90120A6E72D48006820F00300F4
:100D6000616808432A490860FFF792FE064609E0D9
:100D7000FFF78EFE801B41F28831884202D90320A2
:100D800091E707E02248006800F00C006168B0EBD2
:100D9000810FEDD11D48006800F00700A84209D975
:100DA0001A490D700846006800F00700A84201D0FB
:100DB000012078E7207800F00400042807D11448C7
:100DC000006820F4E050E168084311490860207889
:100DD00000F00800082808D10D48006820F46040A1
:100DE000216940EAC1000A49086000F061F8084939
:100DF0000968C1F30311074A515CC84006490860FD
:100E000006480068FFF774FE00204CE7003C0240F3
:100E100008380240FA3900080C00002004000020C5
:100E20000F2202600D4A126802F0030242600B4A70
:100E3000126802F0F0028260084A126802F4E0527E
:100E4000C260064A126802F46042D2080261044A93
:100E5000126802F007020A6070470000083802407A
:100E6000003C024001480068704700000C00002070
:100E700000B5FFF7F7FF04490968C1F38221034A6F
:100E8000515CC84000BD0000083802400A3A000822
:100E900000B5FFF7E7FF04490968C1F34231034A8F
:100EA000515CC84000BD0000083802400A3A000802
:100EB0002DE9F047002400250026A14625480068BA
:100EC00000F00C0020B1042805D008283AD105E034
:100ED000DFF8849039E0DFF8849036E01D48001F89
:100EE000006800F03F041B48001F006800F4800009
:100EF00078B11A481749091F0968C1F38811A0FB86
:100F000001700146224600233846FFF763F9054683
:100F10000EE011480F49091F0968C1F38811A0FBB1
:100F200001700146224600233846FFF753F9054673
:100F30000848001F0068C0F30140401C4600B5FB94
:100F4000F6F902E0DFF8109000BF00BF4846BDE8A8
:100F5000F0870000083802400024F40040787D014A
:100F6000F8B504460CB90120F8BD207800F0010066
:100F7000002874D0F948006800F00C0004280DD057
:100F8000F648006800F00C00082813D1F348001F51
:100F9000006800F48000B0F5800F0BD1EF480838EE
:100FA0000068C0F34040002859D06068002856D13E
:100FB0000120D9E700BF6068B0F5803F08D1E7485D
:100FC0000838006840F48030E449083908601EE0C1
:100FD0006068B0F5A02F0DD1E0480838006840F4F3
:100FE0008020DE49083908600846006840F48030F7
:100FF00008600CE0D9480838006820F48030D749F0
:10100000083908600846006820F48020086000BFA6
:10101000606890B1FFF73CFD054606E0FFF738FD3C
:10102000401B642801D903209EE7CC48083800689B
:10103000C0F340400028F1D011E0FFF729FD05463C
:1010400006E0FFF725FD401B642801D903208BE74C
:10105000C24808380068C0F340400028F1D1207829
:1010600000F0020002285FD1BC48006800F00C00CC
:1010700058B1BA48006800F00C0008281CD1B748E5
:10108000001F006800F48000B0B9B4480838006858
:10109000C0F3400020B1E068012801D0012063E7DF
:1010A000AE480838006820F0F800216940EAC10025
:1010B000AA490839086037E0E06800B30120A84970
:1010C0000860FFF7E5FC054606E0FFF7E1FC401B82
:1010D000022801D9032047E7A04808380068C0F378
:1010E00040000028F1D09D480838006820F0F80042
:1010F000216940EAC10099490839086014E00020DC
:1011000097490860FFF7C4FC054606E0FFF7C0FCFE
:10111000401B022801D9032026E7904808380068C0
:10112000C0F340000028F1D1207800F00800082822
:101130002CD16069A8B101208A490860FFF7A8FC9A
:10114000054606E0FFF7A4FC401B022801D9032056
:101150000AE782486C300068C0F340000028F1D0F4
:1011600014E000207F490860FFF792FC054606E086
:10117000FFF78EFC401B022801D90320F4E67748D4
:101180006C300068C0F340000028F1D1207800F0F6
:101190000400042870D1002770483830006800F03F
:1011A000805090B900BF002000906C483830006833
:1011B00040F080506949383108600846006800F006
:1011C0008050009000BF00BF01276748006800F40E
:1011D0008070B0B96448006840F48070624908606B
:1011E000FFF756FC054606E0FFF752FC401B0228BD
:1011F00001D90320B8E65C48006800F4807000283C
:10120000F2D000BFA068012808D1544868300068B7
:1012100040F001005149683108601DE0A0680528D0
:101220000DD14E486830006840F004004B496831E9
:1012300008600846006840F0010008600CE047487C
:101240006830006820F001004449683108600846B1
:10125000006820F00400086000BFA068A8B1FFF794
:1012600017FC054609E0FFF713FC401B41F28831EB
:10127000884202D9032077E626E0384868300068C3
:10128000C0F340000028EED013E0FFF701FC054654
:1012900008E0FFF7FDFB401B41F28831884201D98D
:1012A000032061E62D4868300068C0F34000002844
:1012B000EFD1012F07D129483830006820F0805045
:1012C00026493831086000BFA069002845D023486E
:1012D000006800F00C0008285DD0A069022845D104
:1012E00000201F490866FFF7D3FB054606E0FFF71D
:1012F000CFFB401B022801D9032035E617480838E8
:101300000068C0F340600028F1D1D4E90701084328
:10131000616A40EA81110122A06AC2EB500041EAF1
:1013200000412C20005D41EA00600C49091F086063
:1013300001200B490866FFF7ABFB054606E0FFF707
:10134000A7FB401B022801D903200DE603480838FB
:101350000068C0F340600028F1D049E0083802403E
:1013600000004742800E47420070004000202149A3
:101370000866FFF78DFB054606E0FFF789FB401B7B
:10138000022801D90320EFE51B480068C0F3406044
:101390000028F2D12CE0A069012800D1E4E516482C
:1013A000001D0668A069012820D006F48001E069CC
:1013B00081421BD106F03F01206A814216D147F6D7
:1013C000C0703040616AB0EB811F0FD106F440312C
:1013D0000122A06AC2EB5000B1EB004F06D106F02B
:1013E00070612C20005DB1EB006F01D00120BBE5E6
:1013F0000020B9E5000047420038024070477047BE
:1014000010B504460CB9012010BD94F83D0028B970
:10141000002084F83C00204600F025F8022084F8E3
:101420003D00211D206800F065FC012084F8460085
:1014300000BF84F83E0001213F20015540200155A6
:101440004120015500BF00BF012084F84200432025
:101450000155442001554520015500BF012084F865
:101460003D000020D0E77047014691F83D0001287B
:1014700001D001207047022081F83D000868C06853
:1014800040F001000B68D860164B0868984213D0F2
:101490000868B0F1804F0FD0134B086898420BD00A
:1014A000124B0868984207D0114B0868984203D045
:1014B000104B086898420CD10868806800F0070259
:1014C000062A0CD00868006840F001000B6818601C
:1014D00005E00868006840F001000B681860002013
:1014E000C8E7000000000140000400400008004080
:1014F000000C004000400140704710B504462068D1
:101500000069C0F34000D8B12068C068C0F3400053
:10151000B0B16FF0020021680861012020772068D7
:10152000806900F0030018B12046FFF7E5FF05E0F1
:10153000204600F0ADF8204600F0ABF80020207700
:1015400020680069C0F38000D8B12068C068C0F38B
:101550008000B0B16FF0040021680861022020779C
:101560002068806900F4407018B12046FFF7C4FF7E
:1015700005E0204600F08CF8204600F08AF80020B4
:10158000207720680069C0F3C000D8B12068C06827
:10159000C0F3C000B0B16FF00800216808610420FA
:1015A00020772068C06900F0030018B12046FFF7DB
:1015B000A3FF05E0204600F06BF8204600F069F834
:1015C0000020207720680069C0F30010D8B120689F
:1015D000C068C0F30010B0B16FF01000216808615E
:1015E000082020772068C06900F4407018B12046B8
:1015F000FFF782FF05E0204600F04AF8204600F0A1
:1016000048F8002020772068006900F0010058B1F8
:101610002068C06800F0010030B16FF0010021685F
:101620000861204600F036F820680069C0F3C01059
:1016300058B12068C068C0F3C01030B16FF08000AE
:10164000216808612046FFF7D9FE20680069C0F3D1
:10165000801058B12068C068C0F3801030B16FF0BE
:10166000400021680861204600F020F820680069E9
:10167000C0F3401058B12068C068C0F3401030B1CA
:101680006FF02000216808612046FFF7B8FE10BD0A
:101690007047704710B5044603492068884201D15D
:1016A000FFF7FCF910BD00000000014070477047D3
:1016B000704700002DE9F84F04462068056820684F
:1016C000C668206847694FF00009CA4605F00F094F
:1016D000B9F1000F0AD105F0200038B106F0200062
:1016E00020B1204600F0A8FBBDE8F88FB9F1000F4B
:1016F0007CD007F0010018B906F49070002875D06E
:1017000005F0010030B106F4807018B1206C40F093
:101710000100206405F0040030B107F0010018B1A9
:10172000206C40F00200206405F0020030B107F0A8
:10173000010018B1206C40F00400206405F008009E
:1017400048B106F0200010B907F0010018B1206C74
:1017500040F008002064206C002846D005F02000EE
:1017600028B106F0200010B1204600F065FB20688B
:101770004069C0F3801A206C00F0080010B9BAF17B
:10178000000F2DD0204600F011FB2068406900F0CA
:101790004000402820D100BF00BF2168143151E82B
:1017A000001F21F040002168143141E80002002AA6
:1017B000F3D100BFA06B50B17548A16B0865A06B59
:1017C000FFF759F888B1A06B016D88470DE02046FE
:1017D000FFF76EFF09E009E02046FFF769FF04E02C
:1017E0002046FFF765FF002020647DE7206B01287D
:1017F00076D105F01000002872D006F01000002805
:10180000FAD000BF00200090206800680090206897
:101810004068009000BF00BF2068406900F04000B1
:1018200040285ED1A06B006840681FFA80F8B8F1CC
:10183000000F54D0A08D404551DDA4F82E80A06B40
:10184000C069B0F5807F43D000BF00BF21680C3174
:1018500051E8001F21F4807021680C3141E800023A
:10186000002AF3D100BF00BF00BF2168143151E846
:10187000001F21F001002168143141E80002002A14
:10188000F3D100BF00BF00BF2168143151E8001F31
:1018900021F040002168143141E80002002AF3D110
:1018A00000BF202084F83E000020206300BF00BF5E
:1018B00021680C3151E8001F21F0100021680C3123
:1018C00041E80002002AF3D100BFA06BFEF77DFFC4
:1018D000A08DE28D801A81B22046FFF7E8FE03E773
:1018E00040E0A08DE18D401A1FFA80F8E08DC0B372
:1018F000B8F1000F35D000BF00BF21680C3151E8AE
:10190000001F21F4907021680C3141E80002002A88
:10191000F3D100BF00BF00BF2168143151E8001FA0
:1019200021F001002168143141E80002002AF3D1BE
:1019300000BF202084F83E000020206300BF00BFCD
:1019400021680C3151E8001F21F0100021680C3192
:1019500041E80002002AF3D100BF41462046FFF7CC
:10196000A6FEC1E605F0800030B106F0800018B197
:10197000204600F0F3FBB7E605F0400030B106F07A
:10198000400018B1204600F047FAADE600BFABE6D4
:10199000991D000810B504460CB9012010BDA069BE
:1019A00000B100E000BF94F83D0028B9002084F8A1
:1019B0003C00204600F028F8242084F83D002068F0
:1019C000C06820F400502168C860204600F0B0FADA
:1019D0002068006920F4904021680861206840690F
:1019E00020F02A00216848612068C06840F4005057
:1019F0002168C86000202064202084F83D0084F81D
:101A00003E000020CAE7000010B586B0044614214D
:101A100001A8FEF729FC1F492068884238D100BF81
:101A2000002000901C48006840F010001A4908602F
:101A30000846006800F01000009000BF00BF00BF23
:101A40000020009014481438006840F0010012494A
:101A5000143908600846006800F00100009000BFDB
:101A600000BF4FF4C060019002200290002003905C
:101A7000032004900720059001A90848FEF724FFE1
:101A8000002205212520FFF7B7F82520FFF7A4F84D
:101A900006B010BD00100140443802400000024072
:101AA0007047704700BFFEE708B500BF00200090F8
:101AB0001548006840F004001349086008460068B3
:101AC00000F00400009000BF00BF00BF00200090A5
:101AD0000846006840F0800008600846006800F092
:101AE0008000009000BF00BF00BF002000900846AB
:101AF000006840F0010008600846006800F001003E
:101B0000009000BF00BF08BD3038024010B50B4840
:101B10000B4908604FF4E1304860002108488160BB
:101B2000C16001610C21416100218161C161FFF748
:101B300031FF08B1FEF746FE10BD00000010014065
:101B40004400002000BFFEE700BFFEE77047000032
:101B50002DE9F04104460D4616460E4F00BF387879
:101B600008B900F035FB00BFEFF3118007462020D5
:101B700080F3118800BF00BF32462946204600F09E
:101B80000BF88046F8B280F3118800BF00BF4046D2
:101B9000BDE8F081D00000202DE9F04707468846D7
:101BA0001646C24607EB47011B4800EBC109D9F8AE
:101BB000140020B1012811D0022826D11EE0484689
:101BC00000F03EFB0546B54201D2002405E0344654
:101BD00032465146484600F07CFB18E0484600F08B
:101BE0002FFB0546B54201D2284600E030460446A8
:101BF00022465146484600F06CFB08E0324651460A
:101C0000484600F02BFB044601E0002400BF00BF63
:101C10002046BDE8F0870000E800002070477047CC
:101C200000B593B0302107A8FEF71EFB142102A8CF
:101C3000FEF71AFB00BF002001902348006840F027
:101C40008050214908600846006800F080500190EB
:101C500000BF00BF00BF002001901C48006840F496
:101C600040401A4908600846006800F4404001906E
:101C700000BF00BF012007900004089002200D90D3
:101C800041050E910C210F916021109102211191BB
:101C90000421129107A8FFF763F908B1FEF792FD3E
:101CA0000F20029002200390002004904FF48050F7
:101CB000059000200690032102A8FEF7EFFF08B16F
:101CC000FEF780FD13B000BD4038024000700040B8
:101CD0000348006840F47000014908607047000044
:101CE00088ED00E010B50248FFF707FC10BD0000CA
:101CF0008800002010B50268204B98420BD0B0F14C
:101D0000804F08D01E4B984205D01E4B984202D0FF
:101D10001D4B984203D122F070024B681A43174BB7
:101D2000984214D0B0F1804F11D0154B98420ED08C
:101D3000144B98420BD0144B984208D0134B984246
:101D400005D0134B984202D0124B984203D122F493
:101D50004072CB681A4322F080034C6943EA0402C4
:101D600002608B68C3620B688362044B984201D1A6
:101D70000B6903630123436110BD000000000140B3
:101D80000004004000080040000C004000400140FA
:101D9000004401400048014070B50546AC6B00208E
:101DA000E085E0842046FFF783FC70BD00BF00BFE4
:101DB00002680C3252E8002F22F4907102680C3253
:101DC00042E80013002BF3D100BF00BF00BF026840
:101DD000143252E8002F22F001010268143242E866
:101DE0000013002BF3D100BF016B01290ED100BFFE
:101DF00000BF02680C3252E8002F22F01001026886
:101E00000C3242E80013002BF3D100BF202180F8F0
:101E10003E1000210163704710B504462068C06879
:101E200020F040002168C860202084F83D00204652
:101E3000FFF737FE002010BDF8B5044694F83E00C9
:101E4000222873D1A068B0F5805F0CD1206950B909
:101E50000025A66A20684068C0F308003080A06AA8
:101E6000801CA06215E0A56A0026A068B0F5805F1E
:101E700003D0A06828B9206918B920684068287084
:101E800004E02068406800F07F002870A06A401CD1
:101E9000A062E08D401E80B2E085002844D1206819
:101EA000C06820F020002168C8602068C06820F465
:101EB00080702168C8602068406920F001002168B6
:101EC0004861202084F83E00206B012826D10020A4
:101ED000206300BF00BF21680C3151E8001F21F0D2
:101EE000100021680C3141E80002002AF3D100BF44
:101EF0002068006800F0100010280AD100BF002000
:101F0000009020680068009020684068009000BF42
:101F100000BFA18D2046FFF7CAFB02E02046FFF775
:101F2000BFFD0020F8BD01E00020FBE70220F9E73B
:101F30002DE9F84F04462068006920F44050E1681C
:101F40000843216808612169A06808436169084362
:101F5000E169084300902068C06849F20C61884339
:101F6000009908432168C8602068406920F44070E7
:101F7000A16908432168486176492068884203D0F6
:101F800075492068884203D1FEF782FF814602E04E
:101F9000FEF76EFF8146E069B0F5004F6CD102207C
:101FA0006168A0FB015003461920A9FB007001469F
:101FB0002A463846FEF70EF96421B0FBF1F04FEAED
:101FC000001A02206168A0FB01510B461920A9FBF1
:101FD00000712A463846FEF7FDF883460220616804
:101FE000A0FB015003461920A9FB00712A46384680
:101FF000FEF7F0F86421B0FBF1F000EBC00101EB5B
:102000000010ABEB8000322101EBC0006421B0FB7B
:10201000F1F000F0F8000AEB400A02206168A0FB32
:10202000015003461920A9FB007001462A46384694
:10203000FEF7D0F8834602206168A0FB01500346FA
:102040001920A9FB00712A463846FEF7C3F864211F
:10205000B0FBF1F000EBC00101EB0010ABEB800036
:10206000322101EBC0006421B0FBF1F000F0070069
:102070005044216888606AE004206168A0FB015038
:1020800003461920A9FB007001462A463846FEF790
:10209000A1F8824604206168A0FB01500346192084
:1020A000A9FB007001462A463846FEF793F86421E2
:1020B000B0FBF1F000EBC00101EB0010AAEB8000D7
:1020C000322101EB00106421B0FBF1F000F0F00AC6
:1020D00004206168A0FB017003461920A9FB005190
:1020E0003A462846FEF776F86421B0FBF1F00AEB99
:1020F000001A04206168A0FB01510B461920A9FBBE
:1021000000712A463846FEF765F883460420616868
:10211000A0FB015003461920A9FB007001462A4686
:102120003846FEF757F86421B0FBF1F000EBC00130
:1021300001EB0010ABEB8000322101EB00106421B9
:10214000B0FBF1F000F00F00504421688860BDE85A
:10215000F88F00000010014000140140014691F882
:102160003D00212828D18868B0F5805F0BD108692F
:1021700048B90A6A1088C0F308000B685860086AFA
:10218000801C086205E00B6A581C086218780B680E
:102190005860C88C401E80B2C88458B90868C068AE
:1021A00020F080000B68D8600868C06840F04000EC
:1021B0000B68D860002070470220FCE710B5024889
:1021C000FFF778FA10BD00004400002000BFFEE7D2
:1021D00010B5124C03202061606111A0A061134969
:1021E000E1614FF4806121620021A1626162E162DC
:1021F0000BA020660E4961661021A16600212167AF
:10220000E16661670BA1E01DFEF752F80AA12046C6
:10221000FEF74EF82020A07110BD0000D000002075
:102220005465726D696E616C0000000078010020D9
:10223000780500205254540053454747455200004A
:1022400010B501460A69CB689A4204D88C68641EAE
:10225000E41AA01801E0D41A601E10BD2DE9F05F49
:102260000446894617464FF0000AE56800BFD4F8D7
:102270001080A84503D9A8EB0500461E04E0A5EB95
:102280000800401CA1680E1AA068401BB04201D98A
:10229000304601E0A068401B0646BE4201D23046EF
:1022A00000E038460646606800EB050B32464946BA
:1022B0005846FDF7C0FFB244B144BF1B3544A06887
:1022C000A84200D10025E560002FD0D15046BDE8DE
:1022D000F09F2DE9F047044689461546E668A06858
:1022E000871BAF420AD9606800EB060A2A464946B6
:1022F0005046FDF7A0FF7019E06014E0B846606832
:1023000000EB060A424649465046FDF794FFA5EB0E
:102310000708D4F804A009EB070142465046FDF730
:102320008AFFC4F80C80BDE8F08700000FB47CB5CC
:102330000C0009AD01D0611E00E00021CDE90001D3
:10234000064B6A462946089800F012F9002C02D084
:10235000009A002111707CBC5DF814FB772C0008FA
:102360007CB50C001D461646014601D0601E00E0FB
:102370000020CDE90010064B6A462946304600F0A1
:10238000F7F8002C02D0009A002111707CBD0000EB
:10239000772C000802480068C0F302207047000054
:1023A0000CED00E010B5002804DB0A07130E054A07
:1023B000135406E00A07140E034A00F00F031B1F14
:1023C000D45410BD00E400E018ED00E002E008C8BD
:1023D000121F08C1002AFAD170477047002001E09F
:1023E00001C1121F002AFBD1704700002DE9FF5FD9
:1023F00082B00021DDE90430020DDDF840B0034376
:1024000018D044F61050A2F2FF324243151411982E
:1024100001281FD0A5EB0B00401C5FEA000A4FF01B
:1024200000064E4FDFF83891B046504615D5CAF138
:10243000000413E0119801244AA3012801D16FEA96
:102440000B010298119AC0E90031C0E9024206B0BE
:10245000BDE8F09FCBF10000DFE704460021404AD1
:10246000491842EB0450CDE9001012E0E00707D014
:1024700032463B4640464946FEF70EF880468946BE
:1024800032463B4610461946FEF706F806460F460A
:102490006410002CEAD1DDE90401DDE90023BAF182
:1024A000000F06DAFDF7F8FF42464B46FDF7F4FF52
:1024B00005E0FEF763F842464B46FEF75FF8044638
:1024C0000E460022284BFEF7E1F803D84FF0FF300C
:1024D000014607E00022254B20463146FDF735FF37
:1024E000FEF7BBF8102409E0002C0ADB0A220023C7
:1024F000FDF770FE039B30321A55641E50EA01024C
:10250000F2D1641C039AC4F111031444119A012AF4
:1025100003D0012208430DD10AE0084304D0002073
:102520004FF0110B119072E7A3EB0B056D1E0DE040
:102530005B4504DD4FF0000205F1010504E003DA1C
:102540004FF00002A5F10105002AECD00298119984
:10255000C0E90231C0E9004579E7000000001440FD
:102560000000F03F300000000000F0430000E03FBA
:102570002DE9FF4F95B09A46884606460025EEE1C4
:10258000252877D100242746F94A0121039400E049
:10259000044316F8013F203B01FA03F01042F7D143
:1025A00030782A2811D06FF02F033078A0F1300254
:1025B000092A16D8039A44F0020402EB820203EBC4
:1025C00042021044761C0390EFE758F8042B039264
:1025D000002A03DA504244F40054039044F0020409
:1025E000761C30782E2816D116F8010F44F004041A
:1025F0002A280DD06FF02F023078A0F13003092B7C
:1026000009D807EB870302EB4303C718761CF3E7EF
:1026100058F8047B761C30786C280FD006DC4C28E8
:1026200017D068280DD06A2814D104E0742810D07F
:102630007A280FD10DE044F400140AE044F4801429
:1026400001E044F440147278824202D104F580140F
:10265000761C761C307866280BD013DC582877D08F
:1026600009DC002875D04528F6D04628F4D0472844
:102670001AD193E118E0632835D0642879D0652811
:1026800012D18BE1702873D008DC6728F1D069285B
:102690006FD06E280DD06F2806D1ACE073282CD0F7
:1026A000752874D0782853D05246179990476D1CDE
:1026B00054E1C4F30250022809D003280DD0D8F801
:1026C000001004280DD00D6008F1040846E1D8F888
:1026D0000010EA17C1E90052F6E7D8F800100D80A3
:1026E000F2E70D70F0E718F8041B8DF800100020D9
:1026F0008DF80100EB46012003E058F804BB4FF0D1
:10270000FF3061074FF0000102D40DE009F1010133
:102710008946B9420FDA8145F8DB1BF80910002918
:10272000F4D108E009F1010189468142FADB1BF886
:1027300009100029F6D103985346A0EB090721465A
:102740003846179A00F080FA284400EB090507E0A4
:1027500044E008E10DE01BF8010B52461799904741
:10276000B9F10109F7D2534621463846179AF2E0EB
:1027700039E00A21C4F302524FF0000B0091022A03
:1027800006D058F8040BC117032A09D00AE023E049
:1027900008F1070020F00702F2E80201904605E088
:1027A00000B2C117042A01D140B2C117002906DACC
:1027B0000A460021404261EB02012D2202E022057F
:1027C00004D52B228DF80420012203E0E20701D07A
:1027D0002022F7E7914657E00A2100E010214FF050
:1027E000000B00910BE010214FF0000B44F00404AB
:1027F0000827009103E008204FF0000B0090C4F37D
:102800000252022A05D058F8040B0021032A08D0EE
:1028100008E008F1070020F00702F2E80201904604
:1028200003E080B2042A00D1C0B24FF000092207B1
:102830002AD53278702A07D0DDF800C08CF0100C51
:102840005CEA0B0C05D00EE040228DF8042001223A
:1028500008E050EA010306D030238DF804308DF8EB
:10286000052002229146009B83F0080353EA0B03E4
:102870000AD150EA010201D1620705D530228DF854
:1028800004204FF001097F1E3278582A04D039A263
:102890000C920CAA02920BE03BA2F9E75B46009A6D
:1028A000FDF798FC0C9B9B5C029A521E02921370DF
:1028B00050EA0102F2D1029804A9081A00F1200B93
:1028C000600702D524F4803400E001275F4502DD73
:1028D000A7EB0B0000E0002000EB0B010090039839
:1028E0004944401A0390E00306D453462146179A00
:1028F000039800F0A9F90544002706E001A8524614
:10290000C05D179990476D1C7F1C4F45F6DBE003B7
:102910000CD553462146179A039800F095F90544C3
:1029200004E030205246179990476D1C0099481ECC
:1029300000900029F5DC08E00298029952460078E0
:10294000491C0291179990476D1CBBF10001ABF136
:10295000010BF1DC5BE100F065F90544761C307891
:1029600000287FF40DAE19B02846BDE8F08F0000B6
:102970000928010030313233343536373839616255
:102980006364656600000000303132333435363719
:10299000383941424344454600000000600700D4F6
:1029A000062708F1070020F00700F0E80223804620
:1029B00003F0004C5FEA0C0001D097A009E020056D
:1029C00001D596A005E0E00701D095A001E0AFF2A7
:1029D0004C001390307823F0004365280CD006DCBF
:1029E000452809D046281DD047287FD13BE06628DE
:1029F00018D067287AD136E00021112F01DB112091
:102A000000E0781CCDE9000104A90CA8FFF7EEFC5A
:102A1000DDE90D010C9A4FF0000B07F1010910924E
:102A200000914EE04FF000400097CDE9011004A95D
:102A30000CA8FFF7DBFCDDE90D020C9B0F994FF0B2
:102A4000000B91461093009211B9791C00EB01091B
:102A5000B7EB090003D4C0F1FF3B07F10109A9EB73
:102A60000700019042E0012F00DA01270021112F19
:102A700001DD112000E03846CDE9000104A90CA8D1
:102A8000FFF7B4FCDDE90D010C9A00914FF0000B4B
:102A9000B946109221070FD4009A4A4503DA9146AD
:102AA00001E0A9F10109B9F1010F05DD109AA9F1C1
:102AB0000101515C3029F4D0B84202DA10F1040F60
:102AC00003DA0121CDE9011010E0002803DC834482
:102AD000A9EB000102E0411C494500DD8946A0EB5D
:102AE0000B00401C01904FF000400290200705D4DD
:102AF0000198484502DB4FF0FF30019000208DF82F
:102B00004B0002980DF14B07B0F1004F25D0022089
:102B10000C902B200D90029800280CDA4042029075
:102B20002D200D9007E00A210298FDF7D9FB3031E6
:102B3000029007F8011D0C99481E0C900029F2DC48
:102B400002980028EFD1791E0D980870307800F0B7
:102B5000200040F0450007F8020D11A8C01BC01D61
:102B600002901398007800B1012000EB0901019850
:102B700001EBE071029801440398401A401E039053
:102B8000E00306D453462146179A039800F05CF8F8
:102B900005441398007818B15246179990476D1C58
:102BA000E00323D553462146179A039800F04CF8CA
:102BB00005441BE0BBF1000F07DB0098584504DD1E
:102BC0001098179910F80B0001E017993020524621
:102BD000904701980BF1010B401E05F10105019092
:102BE00004D12E205246179990476D1CB9F100016F
:102BF000A9F10109DEDC05E017F8010B524617992F
:102C000090476D1C0299481E02900029F4DC53463F
:102C10002146179A03989EE62D0000002B00000025
:102C2000200000002DE9F041044600251E4617460D
:102C3000880404D405E039462020B0476D1C641E8A
:102C4000F9D52846BDE8F0812DE9F041044600257C
:102C50001E469046C80301D5302700E0202788048F
:102C600004D505E041463846B0476D1C641EF9D5D1
:102C70002846BDE8F0814A68002A06D00A68531C3D
:102C80000B6010704868401E4860704770B586B091
:102C90000546002D1CD126480068002811D140F2BD
:102CA000E110244924A229A3CDE90310CDE9013282
:102CB00000900B462EA238A1002000F09BF800BF28
:102CC000FEE740F2E1121B491BA0194B1B68984715
:102CD00000240526324890F8F00010B9304606B0BE
:102CE00070BD00F093FA00241BE004EB44112C4863
:102CF0003130084490F82000012810D104EB441230
:102D0000274831301044411C1E222846FDF7D9FACD
:102D100028B904EB441122483130465C03E0601CC2
:102D2000C4B2052CE1DB00BF00F0A4FA3046D6E7C0
:102D300040000020A43A000874616720213D20284B
:102D400028766F6964202A293029000028257329F4
:102D50002068617320617373657274206661696CA9
:102D600065642061742025733A256C642E00000090
:102D70002E2E5C4D6964646C6577617265735C6569
:102D80006173796C6F676765725C7372635C656CA5
:102D90006F672E6300000000656C6F670000000025
:102DA0008805002010B50024114890F8F000012893
:102DB00001D1204610BD00F099FA04460CB120461E
:102DC000F8E7012000F036FA0020094981F8F30005
:102DD00081F8F400012000F0EDFB052000F094FAEA
:102DE00000F0F6FA0120024981F8F0002046E1E700
:102DF000880500200FB42DE9F04F8DB005460F4631
:102E00009846DDF868903846FDF74BFA8246002474
:102E10004FF0010B00200B900C9007900890099048
:102E20000A90052D1CDDCC480068002811D140F225
:102E30003F20CA49CAA2D1A3CDE90310CDE901328E
:102E400000900B46D6A2E0A10020FFF7D3FF00BF01
:102E5000FEE740F23F22C149C1A0BF4B1B68984723
:102E6000DB4890F8F10020B90DB0BDE8F00F5DF837
:102E700014FBD7480078A84204DB3846FFF706FF6A
:102E8000A84200DAF0E7D249491C3846FDF7F7F9C5
:102E900000B9E9E71CA8069000F0B8F9CC4890F812
:102EA000F50078B1CB480119CBA2204600F03CFCDC
:102EB0000444CA4850F82520C6480119204600F0AD
:102EC00033FC04440121284600F0B4FC40B1C4485E
:102ED00050F82520BF480119204600F025FC044485
:102EE0000221284600F0A6FCE8B1BA4801193A468A
:102EF000204600F019FC0444BAF10F0F0CD8CAF1B7
:102F00000F01202207A8FDF7A8F9B248011907AA66
:102F1000204600F009FC0444AE480119B1A2204645
:102F200000F002FC04441C21284600F083FC002829
:102F300052D0A8480119ACA2204600F0F5FB044489
:102F40000421284600F076FCA8B100F0B7F90590FE
:102F5000A04801192046059A00F0E6FB0444182118
:102F6000284600F067FC30B19A4801199DA220461E
:102F700000F0DAFB04440821284600F05BFCA8B10D
:102F800000F08CF90590934801192046059A00F04D
:102F9000CBFB04441021284600F04CFC30B18D4896
:102FA000011990A2204600F0BFFB044410212846DE
:102FB00000F040FC48B100F079F90590854801190E
:102FC0002046059A00F0B0FB04448248011987A20C
:102FD000204600F0A9FB044420212846189A00F05E
:102FE00095FC60B942464021284600F08FFC30B97C
:102FF0004A468021284600F097FC002862D0754898
:1030000001197BA2204600F08FFB044420212846B2
:10301000189A00F07BFC08B36E4801192046189AF4
:1030200000F082FB044442464021284600F06EFC3A
:1030300038B1684801196FA2204600F075FB0444BE
:103040000CE04A468021284600F06EFC30B1614811
:10305000011964A2204600F067FB04444A4680211F
:10306000284600F061FCC8B14B4663A205210BA8BD
:10307000FFF75CF9574801190BAA204600F054FBF2
:10308000044442464021284600F040FC30B15148FB
:10309000011954A2204600F047FB04444246402157
:1030A000284600F033FC30B14A4801194246204618
:1030B00000F03AFB04444748011950A2204600F0B2
:1030C00033FB0444C4F58061424A1019069B1B9AE5
:1030D000FFF746F9064600200690A019B0F5806F6C
:1030E00003D8002E01DB344401E04FF48064201D3E
:1030F0005844B0F5806F04D94FF48064241FA4EBCA
:103100000B04334890F8200058B10020314908558D
:103110002F4920312F48FDF7B2F810B900F0AAF876
:10312000A2E62B4890F8F50030B12A48011934A2E4
:10313000204600F0F9FA04442648011932A220463C
:1031400000F0F2FA04442146224800F0D1F800F0E1
:1031500091F800BF88E6000040000020BC3A00085B
:103160006C6576656C203C3D20454C4F475F4C5666
:103170004C5F564552424F534500000028257329A5
:103180002068617320617373657274206661696C75
:1031900065642061742025733A256C642E0000005C
:1031A0002E2E5C4D6964646C6577617265735C6535
:1031B0006173796C6F676765725C7372635C656C71
:1031C0006F672E6300000000656C6F6700000000F1
:1031D00088050020800600201B5B000028000020DE
:1031E00010000020200000005B0000005D200000B7
:1031F000280000003A000000256C6400290000004F
:103200001B5B306D000000000A00000010B508488C
:1032100090F8F20030B100F074F80120044981F810
:10322000F40003E00120024981F8F30010BD000022
:103230008805002010B504460D4880F8F24090F84B
:10324000F200A0B10A4890F8F40030B9084890F8AC
:10325000F30010B100F055F809E0054890F8F400CB
:1032600028B1034890F8F30008B900F04BF810BDFE
:103270008805002010B5084890F8F20030B100F041
:1032800041F80020044981F8F40003E000200249DD
:1032900081F8F30010BD00008805002000A07047F1
:1032A00070726F63657373313031000000A0704736
:1032B00074687265616431303100000010B5FDF74B
:1032C000E7FB0446234603A220210748FFF72EF818
:1032D000054810BD43757272656E74207469636B26
:1032E0003A20256400000000800A0020002070477A
:1032F00070B504460D462A4621460020FEF728FCFC
:1033000070BD70477047000010B586B00446052CAC
:103310001CDD10480068002811D140F25B100E49F6
:103320000EA215A3CDE90310CDE9013200900B46A2
:103330001AA224A10020FFF75DFD00BFFEE740F2C6
:103340005B12054905A0034B1B6898471F48047092
:1033500006B010BD40000020783A00086C65766524
:103360006C203C3D20454C4F475F4C564C5F5645CA
:1033700052424F534500000028257329206861738D
:1033800020617373657274206661696C6564206185
:10339000742025733A256C642E0000002E2E5C4D9F
:1033A0006964646C6577617265735C656173796C7F
:1033B0006F676765725C7372635C656C6F672E63C1
:1033C00000000000656C6F670000000088050020A9
:1033D00010B5002400BF13E004EB44120A49114465
:1033E000481C1F21FCF740FF002104EB4412064853
:1033F000815404EB4412104480F82010601CC4B2C5
:10340000052CE9DB10BD0000B905002030B585B002
:1034100004460D46052C1CDD10480068002811D11B
:1034200040F241100E490FA215A3CDE90310CDE9DA
:10343000013200900B461BA224A10020FFF7DAFC0A
:1034400000BFFEE740F24112054906A0034B1B688E
:103450009847204840F8245005B030BD4000002077
:103460005B3A00086C6576656C203C3D20454C4F0E
:10347000475F4C564C5F564552424F534500000043
:103480002825732920686173206173736572742025
:103490006661696C65642061742025733A256C64EB
:1034A0002E0000002E2E5C4D6964646C657761729D
:1034B00065735C656173796C6F676765725C737265
:1034C000635C656C6F672E6300000000656C6F675E
:1034D000000000006006002010B586B00446002CF5
:1034E0001ED0012C1CD011480068002811D14FF4C7
:1034F0008B700F490FA219A3CDE90310CDE901325A
:1035000000900B461EA228A10020FFF773FC00BF0D
:10351000FEE74FF48B72064906A0044B1B689847E0
:10352000234880F8F14006B010BD000040000020A4
:10353000273A000828656E61626C6564203D3D2075
:1035400066616C736529207C7C2028656E61626CE5
:103550006564203D3D207472756529002825732916
:103560002068617320617373657274206661696C91
:1035700065642061742025733A256C642E00000078
:103580002E2E5C4D6964646C6577617265735C6551
:103590006173796C6F676765725C7372635C656C8D
:1035A0006F672E6300000000656C6F67000000000D
:1035B0008805002010B586B00446002C1ED0012CD2
:1035C0001CD011480068002811D14FF491700F49A8
:1035D0000FA219A3CDE90310CDE9013200900B46EB
:1035E0001EA228A10020FFF705FC00BFFEE74FF454
:1035F0009172064906A0044B1B689847234880F83F
:10360000F54006B010BD0000400000203F3A000821
:1036100028656E61626C6564203D3D2066616C7357
:103620006529207C7C2028656E61626C6564203D84
:103630003D207472756529002825732920686173FF
:1036400020617373657274206661696C65642061C2
:10365000742025733A256C642E0000002E2E5C4DDC
:103660006964646C6577617265735C656173796CBC
:103670006F676765725C7372635C656C6F672E63FE
:1036800000000000656C6F670000000088050020E6
:103690000EB50B4890F8F00000B90EBD0120FFF701
:1036A0001BFF08A009A1F722124BCDE900210290CF
:1036B00011A21BA10320FFF79DFB00BFEDE7000057
:1036C00088050020322E322E393900004561737989
:1036D0004C6F676765722056257320697320696E89
:1036E000697469616C697A65207375636365737366
:1036F0002E000000123A00082E2E5C4D6964646CA6
:103700006577617265735C656173796C6F67676516
:10371000725C7372635C656C6F672E6300000000FF
:10372000656C6F6700000000F0B585B006460D4679
:1037300014462746002D1AD124480068002810D1CD
:103740002C20234923A224A3CDE90310CDE9013283
:1037500000900B4629A234A10020FFF74BFB00BFCD
:10376000FEE72C221A491BA0184B1B689847002C17
:1037700019D11648006880B92D2015492CA216A32E
:10378000CDE90310CDE9013200900B461BA226A122
:103790000020FFF72FFB00BFFEE72D220C4924A0DD
:1037A0000A4B1B6898470AE03046761CB0F5806FDC
:1037B00004D214F8010B05F8010B00E002E02078B8
:1037C0000028F1D100BFE01B05B0F0BD4000002093
:1037D000F43A000864737400282573292068617323
:1037E00020617373657274206661696C6564206121
:1037F000742025733A256C642E0000002E2E5C4D3B
:103800006964646C6577617265735C656173796C1A
:103810006F676765725C7372635C656C6F675F7519
:1038200074696C732E630000656C6F6700000000A4
:103830007372630030B585B004460D46052C1CDD5F
:1038400013480068002811D14FF43870114912A2B2
:1038500018A3CDE90310CDE9013200900B461EA25A
:1038600027A10020FFF7C6FA00BFFEE74FF4387229
:10387000084909A0064B1B689847234850F82400C4
:10388000284010B1012005B030BD0020FBE700004A
:1038900040000020C83A00086C6576656C203C3D0D
:1038A00020454C4F475F4C564C5F564552424F5354
:1038B0004500000028257329206861732061737317
:1038C000657274206661696C65642061742025737B
:1038D0003A256C642E0000002E2E5C4D6964646CE9
:1038E0006577617265735C656173796C6F67676535
:1038F000725C7372635C656C6F672E63000000001E
:10390000656C6F67000000006006002070B505461A
:103910000E46144634B131462846FFF78BFF08B1F6
:10392000012070BD0020FCE770B505460E46144628
:1039300034B131462846FFF77DFF08B1012070BD44
:103940000020FCE7FDF7B6F8FEF76AF9FEF7ACF8E1
:10395000FEF7DCF8FFF726FA00210846FFF756FDD0
:1039600007210120FFF752FD07210220FFF74EFD3E
:1039700007210320FFF74AFDA7210420FFF746FD9A
:10398000A7210520FFF742FDFFF782FE05E000F0CA
:1039900005F84FF4FA60FCF783FFF8E73EB5FDF752
:1039A00077F8044605A0C321094B0AA2CDE901041A
:1039B00000910DA10020FFF71DFA3EBD7469636BF5
:1039C0003A256C642C48656C6C6F776F726C640080
:1039D000F03900082E2E2F436F72652F5372632F1C
:1039E0006D61696E2E6300004E4F5F5441470000C9
:1039F000746573745F656C6F670000000000000001
:103A0000000001020304060708090000000001028B
:103A10000304656C6F675F737461727400656C6F2B
:103A2000675F73746F7000656C6F675F7365745F59
:103A30006F75747075745F656E61626C6564006546
:103A40006C6F675F7365745F746578745F636F6CC8
:103A50006F725F656E61626C656400656C6F675F55
:103A60007365745F666D7400656C6F675F73657412
:103A70005F66696C74657200656C6F675F7365740F
:103A80005F66696C7465725F6C766C00656C6F67FD
:103A90005F7365745F66696C7465725F7461675F9C
:103AA0006C766C00656C6F675F6765745F66696CE8
:103AB0007465725F7461675F6C766C00656C6F67CC
:103AC0005F6F7574707574006765745F666D745FA1
:103AD000656E61626C656400656C6F675F66696ED8
:103AE000645F6C766C00656C6F675F66696E645FBF
:103AF00074616700656C6F675F73747263707900DF
:103B0000656C6F675F6370796C6E00656C6F675F83
:103B10006D656D6370790000412F0000442F000037
:103B2000452F0000492F0000562F0000572F00009E
:103B300033313B326D00000033323B326D00000008
:103B400033333B326D00000033343B326D000000F4
:103B500033353B326D00000033363B326D000000E0
:103B6000803B00080000002044000000CC23000837
:103B7000C43B0008440000205C0E0000DC23000869
:103B80000000000010000000010000000024F4000C
:103B9000183B0008203B00082C3B0008243B000891
:103BA0001C3B0008283B0008503B0008303B000845
:103BB000403B0008583B0008383B0008483B0008E1
:043BC0000000000001
:040000050800019955
:00000001FF
